{
  "abi": [
    {
      "inputs": [],
      "name": "arithmeticError",
      "outputs": [
        {
          "internalType": "bytes",
          "name": "",
          "type": "bytes"
        }
      ],
      "stateMutability": "view",
      "type": "function"
    },
    {
      "inputs": [],
      "name": "assertionError",
      "outputs": [
        {
          "internalType": "bytes",
          "name": "",
          "type": "bytes"
        }
      ],
      "stateMutability": "view",
      "type": "function"
    },
    {
      "inputs": [],
      "name": "divisionError",
      "outputs": [
        {
          "internalType": "bytes",
          "name": "",
          "type": "bytes"
        }
      ],
      "stateMutability": "view",
      "type": "function"
    },
    {
      "inputs": [],
      "name": "encodeStorageError",
      "outputs": [
        {
          "internalType": "bytes",
          "name": "",
          "type": "bytes"
        }
      ],
      "stateMutability": "view",
      "type": "function"
    },
    {
      "inputs": [],
      "name": "enumConversionError",
      "outputs": [
        {
          "internalType": "bytes",
          "name": "",
          "type": "bytes"
        }
      ],
      "stateMutability": "view",
      "type": "function"
    },
    {
      "inputs": [],
      "name": "indexOOBError",
      "outputs": [
        {
          "internalType": "bytes",
          "name": "",
          "type": "bytes"
        }
      ],
      "stateMutability": "view",
      "type": "function"
    },
    {
      "inputs": [],
      "name": "lowLevelError",
      "outputs": [
        {
          "internalType": "bytes",
          "name": "",
          "type": "bytes"
        }
      ],
      "stateMutability": "view",
      "type": "function"
    },
    {
      "inputs": [],
      "name": "memOverflowError",
      "outputs": [
        {
          "internalType": "bytes",
          "name": "",
          "type": "bytes"
        }
      ],
      "stateMutability": "view",
      "type": "function"
    },
    {
      "inputs": [],
      "name": "popError",
      "outputs": [
        {
          "internalType": "bytes",
          "name": "",
          "type": "bytes"
        }
      ],
      "stateMutability": "view",
      "type": "function"
    },
    {
      "inputs": [],
      "name": "zeroVarError",
      "outputs": [
        {
          "internalType": "bytes",
          "name": "",
          "type": "bytes"
        }
      ],
      "stateMutability": "view",
      "type": "function"
    }
  ],
  "bytecode": {
    "object": "0x6103e9610026600b82828239805160001a60731461001957fe5b30600052607381538281f3fe73000000000000000000000000000000000000000030146080604052600436106100a85760003560e01c8063ac3d92c611610070578063ac3d92c61461014a578063b22dc54d14610152578063b67689da1461015a578063d160e4de14610162578063fa784a441461016a576100a8565b806305ee8612146100ad578063103329771461012a5780631de45560146101325780638995290f1461013a578063986c5f6814610142575b600080fd5b6100b5610172565b6040805160208082528351818301528351919283929083019185019080838360005b838110156100ef5781810151838201526020016100d7565b50505050905090810190601f16801561011c5780820380516001836020036101000a031916815260200191505b509250505060405180910390f35b6100b56101b0565b6100b56101ee565b6100b561022c565b6100b561026a565b6100b56102a8565b6100b56102bb565b6100b56102f9565b6100b5610337565b6100b5610375565b6040805160326024808301919091528251808303909101815260449091019091526020810180516001600160e01b0316634e487b7160e01b17905281565b6040805160016024808301919091528251808303909101815260449091019091526020810180516001600160e01b0316634e487b7160e01b17905281565b6040805160216024808301919091528251808303909101815260449091019091526020810180516001600160e01b0316634e487b7160e01b17905281565b6040805160116024808301919091528251808303909101815260449091019091526020810180516001600160e01b0316634e487b7160e01b17905281565b6040805160416024808301919091528251808303909101815260449091019091526020810180516001600160e01b0316634e487b7160e01b17905281565b6040518060200160405280600081525081565b6040805160316024808301919091528251808303909101815260449091019091526020810180516001600160e01b0316634e487b7160e01b17905281565b6040805160516024808301919091528251808303909101815260449091019091526020810180516001600160e01b0316634e487b7160e01b17905281565b6040805160226024808301919091528251808303909101815260449091019091526020810180516001600160e01b0316634e487b7160e01b17905281565b6040805160126024808301919091528251808303909101815260449091019091526020810180516001600160e01b0316634e487b7160e01b1790528156fea2646970667358221220a5d99d9b24e77727fbb14f3fafd68c17359bc27f01c96bc03a859fb8682ba32a64736f6c63430007060033",
    "linkReferences": {}
  },
  "methodIdentifiers": {
    "arithmeticError()": "8995290f",
    "assertionError()": "10332977",
    "divisionError()": "fa784a44",
    "encodeStorageError()": "d160e4de",
    "enumConversionError()": "1de45560",
    "indexOOBError()": "05ee8612",
    "lowLevelError()": "ac3d92c6",
    "memOverflowError()": "986c5f68",
    "popError()": "b22dc54d",
    "zeroVarError()": "b67689da"
  },
  "id": 5
}